{
  "contractName": "msnftold",
  "abi": [
    {
      "inputs": [
        {
          "internalType": "string",
          "name": "name",
          "type": "string"
        },
        {
          "internalType": "string",
          "name": "symbol",
          "type": "string"
        },
        {
          "internalType": "address[]",
          "name": "_coSigners",
          "type": "address[]"
        },
        {
          "internalType": "uint8",
          "name": "_requiredSignatures",
          "type": "uint8"
        }
      ],
      "stateMutability": "nonpayable",
      "type": "constructor"
    },
    {
      "anonymous": false,
      "inputs": [
        {
          "indexed": true,
          "internalType": "address",
          "name": "owner",
          "type": "address"
        },
        {
          "indexed": true,
          "internalType": "address",
          "name": "approved",
          "type": "address"
        },
        {
          "indexed": true,
          "internalType": "uint256",
          "name": "tokenId",
          "type": "uint256"
        }
      ],
      "name": "Approval",
      "type": "event"
    },
    {
      "anonymous": false,
      "inputs": [
        {
          "indexed": true,
          "internalType": "address",
          "name": "owner",
          "type": "address"
        },
        {
          "indexed": true,
          "internalType": "address",
          "name": "operator",
          "type": "address"
        },
        {
          "indexed": false,
          "internalType": "bool",
          "name": "approved",
          "type": "bool"
        }
      ],
      "name": "ApprovalForAll",
      "type": "event"
    },
    {
      "anonymous": false,
      "inputs": [
        {
          "indexed": true,
          "internalType": "address",
          "name": "from",
          "type": "address"
        },
        {
          "indexed": true,
          "internalType": "address",
          "name": "to",
          "type": "address"
        },
        {
          "indexed": true,
          "internalType": "uint256",
          "name": "tokenId",
          "type": "uint256"
        }
      ],
      "name": "Transfer",
      "type": "event"
    },
    {
      "inputs": [
        {
          "internalType": "address",
          "name": "to",
          "type": "address"
        },
        {
          "internalType": "uint256",
          "name": "tokenId",
          "type": "uint256"
        }
      ],
      "name": "approve",
      "outputs": [],
      "stateMutability": "nonpayable",
      "type": "function"
    },
    {
      "inputs": [
        {
          "internalType": "address",
          "name": "owner",
          "type": "address"
        }
      ],
      "name": "balanceOf",
      "outputs": [
        {
          "internalType": "uint256",
          "name": "",
          "type": "uint256"
        }
      ],
      "stateMutability": "view",
      "type": "function"
    },
    {
      "inputs": [
        {
          "internalType": "uint256",
          "name": "",
          "type": "uint256"
        }
      ],
      "name": "coSigners",
      "outputs": [
        {
          "internalType": "address",
          "name": "",
          "type": "address"
        }
      ],
      "stateMutability": "view",
      "type": "function"
    },
    {
      "inputs": [
        {
          "internalType": "uint256",
          "name": "tokenId",
          "type": "uint256"
        }
      ],
      "name": "getApproved",
      "outputs": [
        {
          "internalType": "address",
          "name": "",
          "type": "address"
        }
      ],
      "stateMutability": "view",
      "type": "function"
    },
    {
      "inputs": [
        {
          "internalType": "address",
          "name": "owner",
          "type": "address"
        },
        {
          "internalType": "address",
          "name": "operator",
          "type": "address"
        }
      ],
      "name": "isApprovedForAll",
      "outputs": [
        {
          "internalType": "bool",
          "name": "",
          "type": "bool"
        }
      ],
      "stateMutability": "view",
      "type": "function"
    },
    {
      "inputs": [],
      "name": "name",
      "outputs": [
        {
          "internalType": "string",
          "name": "",
          "type": "string"
        }
      ],
      "stateMutability": "view",
      "type": "function"
    },
    {
      "inputs": [
        {
          "internalType": "uint256",
          "name": "tokenId",
          "type": "uint256"
        }
      ],
      "name": "ownerOf",
      "outputs": [
        {
          "internalType": "address",
          "name": "",
          "type": "address"
        }
      ],
      "stateMutability": "view",
      "type": "function"
    },
    {
      "inputs": [],
      "name": "proposalCount",
      "outputs": [
        {
          "internalType": "uint256",
          "name": "",
          "type": "uint256"
        }
      ],
      "stateMutability": "view",
      "type": "function"
    },
    {
      "inputs": [
        {
          "internalType": "uint256",
          "name": "",
          "type": "uint256"
        }
      ],
      "name": "proposals",
      "outputs": [
        {
          "internalType": "uint256",
          "name": "id",
          "type": "uint256"
        },
        {
          "internalType": "address",
          "name": "proposer",
          "type": "address"
        },
        {
          "internalType": "uint256",
          "name": "tokenId",
          "type": "uint256"
        },
        {
          "internalType": "uint8",
          "name": "action",
          "type": "uint8"
        },
        {
          "internalType": "bool",
          "name": "approved",
          "type": "bool"
        }
      ],
      "stateMutability": "view",
      "type": "function"
    },
    {
      "inputs": [],
      "name": "requiredSignatures",
      "outputs": [
        {
          "internalType": "uint8",
          "name": "",
          "type": "uint8"
        }
      ],
      "stateMutability": "view",
      "type": "function"
    },
    {
      "inputs": [
        {
          "internalType": "address",
          "name": "from",
          "type": "address"
        },
        {
          "internalType": "address",
          "name": "to",
          "type": "address"
        },
        {
          "internalType": "uint256",
          "name": "tokenId",
          "type": "uint256"
        }
      ],
      "name": "safeTransferFrom",
      "outputs": [],
      "stateMutability": "nonpayable",
      "type": "function"
    },
    {
      "inputs": [
        {
          "internalType": "address",
          "name": "from",
          "type": "address"
        },
        {
          "internalType": "address",
          "name": "to",
          "type": "address"
        },
        {
          "internalType": "uint256",
          "name": "tokenId",
          "type": "uint256"
        },
        {
          "internalType": "bytes",
          "name": "data",
          "type": "bytes"
        }
      ],
      "name": "safeTransferFrom",
      "outputs": [],
      "stateMutability": "nonpayable",
      "type": "function"
    },
    {
      "inputs": [
        {
          "internalType": "address",
          "name": "operator",
          "type": "address"
        },
        {
          "internalType": "bool",
          "name": "approved",
          "type": "bool"
        }
      ],
      "name": "setApprovalForAll",
      "outputs": [],
      "stateMutability": "nonpayable",
      "type": "function"
    },
    {
      "inputs": [
        {
          "internalType": "bytes4",
          "name": "interfaceId",
          "type": "bytes4"
        }
      ],
      "name": "supportsInterface",
      "outputs": [
        {
          "internalType": "bool",
          "name": "",
          "type": "bool"
        }
      ],
      "stateMutability": "view",
      "type": "function"
    },
    {
      "inputs": [],
      "name": "symbol",
      "outputs": [
        {
          "internalType": "string",
          "name": "",
          "type": "string"
        }
      ],
      "stateMutability": "view",
      "type": "function"
    },
    {
      "inputs": [
        {
          "internalType": "uint256",
          "name": "tokenId",
          "type": "uint256"
        }
      ],
      "name": "tokenURI",
      "outputs": [
        {
          "internalType": "string",
          "name": "",
          "type": "string"
        }
      ],
      "stateMutability": "view",
      "type": "function"
    },
    {
      "inputs": [
        {
          "internalType": "address",
          "name": "from",
          "type": "address"
        },
        {
          "internalType": "address",
          "name": "to",
          "type": "address"
        },
        {
          "internalType": "uint256",
          "name": "tokenId",
          "type": "uint256"
        }
      ],
      "name": "transferFrom",
      "outputs": [],
      "stateMutability": "nonpayable",
      "type": "function"
    },
    {
      "inputs": [
        {
          "internalType": "uint256",
          "name": "",
          "type": "uint256"
        },
        {
          "internalType": "address",
          "name": "",
          "type": "address"
        }
      ],
      "name": "votes",
      "outputs": [
        {
          "internalType": "bool",
          "name": "",
          "type": "bool"
        }
      ],
      "stateMutability": "view",
      "type": "function"
    },
    {
      "inputs": [
        {
          "internalType": "uint256",
          "name": "_tokenId",
          "type": "uint256"
        },
        {
          "internalType": "uint8",
          "name": "_action",
          "type": "uint8"
        }
      ],
      "name": "propose",
      "outputs": [],
      "stateMutability": "nonpayable",
      "type": "function"
    },
    {
      "inputs": [
        {
          "internalType": "uint256",
          "name": "_proposalId",
          "type": "uint256"
        },
        {
          "internalType": "bool",
          "name": "_approval",
          "type": "bool"
        }
      ],
      "name": "vote",
      "outputs": [],
      "stateMutability": "nonpayable",
      "type": "function"
    }
  ],
  "bytecode": "0x60806040523480156200001157600080fd5b50604051620034693803806200346983398181016040528101906200003791906200045c565b838381600090816200004a919062000776565b5080600190816200005c919062000776565b5050508160069080519060200190620000779291906200009d565b5080600760006101000a81548160ff021916908360ff160217905550505050506200085d565b82805482825590600052602060002090810192821562000119579160200282015b82811115620001185782518260006101000a81548173ffffffffffffffffffffffffffffffffffffffff021916908373ffffffffffffffffffffffffffffffffffffffff16021790555091602001919060010190620000be565b5b5090506200012891906200012c565b5090565b5b80821115620001475760008160009055506001016200012d565b5090565b6000604051905090565b600080fd5b600080fd5b600080fd5b600080fd5b6000601f19601f8301169050919050565b7f4e487b7100000000000000000000000000000000000000000000000000000000600052604160045260246000fd5b620001b48262000169565b810181811067ffffffffffffffff82111715620001d657620001d56200017a565b5b80604052505050565b6000620001eb6200014b565b9050620001f98282620001a9565b919050565b600067ffffffffffffffff8211156200021c576200021b6200017a565b5b620002278262000169565b9050602081019050919050565b60005b838110156200025457808201518184015260208101905062000237565b60008484015250505050565b6000620002776200027184620001fe565b620001df565b90508281526020810184848401111562000296576200029562000164565b5b620002a384828562000234565b509392505050565b600082601f830112620002c357620002c26200015f565b5b8151620002d584826020860162000260565b91505092915050565b600067ffffffffffffffff821115620002fc57620002fb6200017a565b5b602082029050602081019050919050565b600080fd5b600073ffffffffffffffffffffffffffffffffffffffff82169050919050565b60006200033f8262000312565b9050919050565b620003518162000332565b81146200035d57600080fd5b50565b600081519050620003718162000346565b92915050565b60006200038e6200038884620002de565b620001df565b90508083825260208201905060208402830185811115620003b457620003b36200030d565b5b835b81811015620003e15780620003cc888262000360565b845260208401935050602081019050620003b6565b5050509392505050565b600082601f8301126200040357620004026200015f565b5b81516200041584826020860162000377565b91505092915050565b600060ff82169050919050565b62000436816200041e565b81146200044257600080fd5b50565b60008151905062000456816200042b565b92915050565b6000806000806080858703121562000479576200047862000155565b5b600085015167ffffffffffffffff8111156200049a57620004996200015a565b5b620004a887828801620002ab565b945050602085015167ffffffffffffffff811115620004cc57620004cb6200015a565b5b620004da87828801620002ab565b935050604085015167ffffffffffffffff811115620004fe57620004fd6200015a565b5b6200050c87828801620003eb565b92505060606200051f8782880162000445565b91505092959194509250565b600081519050919050565b7f4e487b7100000000000000000000000000000000000000000000000000000000600052602260045260246000fd5b600060028204905060018216806200057e57607f821691505b60208210810362000594576200059362000536565b5b50919050565b60008190508160005260206000209050919050565b60006020601f8301049050919050565b600082821b905092915050565b600060088302620005fe7fffffffffffffffffffffffffffffffffffffffffffffffffffffffffffffffff82620005bf565b6200060a8683620005bf565b95508019841693508086168417925050509392505050565b6000819050919050565b6000819050919050565b600062000657620006516200064b8462000622565b6200062c565b62000622565b9050919050565b6000819050919050565b620006738362000636565b6200068b62000682826200065e565b848454620005cc565b825550505050565b600090565b620006a262000693565b620006af81848462000668565b505050565b5b81811015620006d757620006cb60008262000698565b600181019050620006b5565b5050565b601f8211156200072657620006f0816200059a565b620006fb84620005af565b810160208510156200070b578190505b620007236200071a85620005af565b830182620006b4565b50505b505050565b600082821c905092915050565b60006200074b600019846008026200072b565b1980831691505092915050565b600062000766838362000738565b9150826002028217905092915050565b62000781826200052b565b67ffffffffffffffff8111156200079d576200079c6200017a565b5b620007a9825462000565565b620007b6828285620006db565b600060209050601f831160018114620007ee5760008415620007d9578287015190505b620007e5858262000758565b86555062000855565b601f198416620007fe866200059a565b60005b82811015620008285784890151825560018201915060208501945060208101905062000801565b8683101562000848578489015162000844601f89168262000738565b8355505b6001600288020188555050505b505050505050565b612bfc806200086d6000396000f3fe608060405234801561001057600080fd5b506004361061012c5760003560e01c806370a08231116100ad578063c87b56dd11610071578063c87b56dd14610357578063c9d27afe14610387578063d23254b4146103a3578063da35c664146103d3578063e985e9c5146103f15761012c565b806370a08231146102b35780638d068043146102e357806395d89b4114610301578063a22cb4651461031f578063b88d4fde1461033b5761012c565b806323b872dd116100f457806323b872dd146101ff57806342842e0e1461021b5780636352211e1461023757806369c5a4c814610267578063702d5de8146102835761012c565b8063013cf08b1461013157806301ffc9a71461016557806306fdde0314610195578063081812fc146101b3578063095ea7b3146101e3575b600080fd5b61014b60048036038101906101469190611c52565b610421565b60405161015c959493929190611d06565b60405180910390f35b61017f600480360381019061017a9190611db1565b6104a1565b60405161018c9190611dde565b60405180910390f35b61019d610583565b6040516101aa9190611e89565b60405180910390f35b6101cd60048036038101906101c89190611c52565b610615565b6040516101da9190611eab565b60405180910390f35b6101fd60048036038101906101f89190611ef2565b61065b565b005b61021960048036038101906102149190611f32565b610772565b005b61023560048036038101906102309190611f32565b6107d2565b005b610251600480360381019061024c9190611c52565b6107f2565b60405161025e9190611eab565b60405180910390f35b610281600480360381019061027c9190611fb1565b610878565b005b61029d60048036038101906102989190611c52565b6109a2565b6040516102aa9190611eab565b60405180910390f35b6102cd60048036038101906102c89190611ff1565b6109e1565b6040516102da919061201e565b60405180910390f35b6102eb610a98565b6040516102f89190612039565b60405180910390f35b610309610aab565b6040516103169190611e89565b60405180910390f35b61033960048036038101906103349190612080565b610b3d565b005b610355600480360381019061035091906121f5565b610b53565b005b610371600480360381019061036c9190611c52565b610bb5565b60405161037e9190611e89565b60405180910390f35b6103a1600480360381019061039c9190612278565b610c1d565b005b6103bd60048036038101906103b891906122b8565b610ee7565b6040516103ca9190611dde565b60405180910390f35b6103db610f16565b6040516103e8919061201e565b60405180910390f35b61040b600480360381019061040691906122f8565b610f1c565b6040516104189190611dde565b60405180910390f35b6008818154811061043157600080fd5b90600052602060002090600402016000915090508060000154908060010160009054906101000a900473ffffffffffffffffffffffffffffffffffffffff16908060020154908060030160009054906101000a900460ff16908060030160019054906101000a900460ff16905085565b60007f80ac58cd000000000000000000000000000000000000000000000000000000007bffffffffffffffffffffffffffffffffffffffffffffffffffffffff1916827bffffffffffffffffffffffffffffffffffffffffffffffffffffffff1916148061056c57507f5b5e139f000000000000000000000000000000000000000000000000000000007bffffffffffffffffffffffffffffffffffffffffffffffffffffffff1916827bffffffffffffffffffffffffffffffffffffffffffffffffffffffff1916145b8061057c575061057b82610fb0565b5b9050919050565b60606000805461059290612367565b80601f01602080910402602001604051908101604052809291908181526020018280546105be90612367565b801561060b5780601f106105e05761010080835404028352916020019161060b565b820191906000526020600020905b8154815290600101906020018083116105ee57829003601f168201915b5050505050905090565b60006106208261101a565b6004600083815260200190815260200160002060009054906101000a900473ffffffffffffffffffffffffffffffffffffffff169050919050565b6000610666826107f2565b90508073ffffffffffffffffffffffffffffffffffffffff168373ffffffffffffffffffffffffffffffffffffffff16036106d6576040517f08c379a00000000000000000000000000000000000000000000000000000000081526004016106cd9061240a565b60405180910390fd5b8073ffffffffffffffffffffffffffffffffffffffff166106f5611065565b73ffffffffffffffffffffffffffffffffffffffff16148061072457506107238161071e611065565b610f1c565b5b610763576040517f08c379a000000000000000000000000000000000000000000000000000000000815260040161075a9061249c565b60405180910390fd5b61076d838361106d565b505050565b61078361077d611065565b82611126565b6107c2576040517f08c379a00000000000000000000000000000000000000000000000000000000081526004016107b99061252e565b60405180910390fd5b6107cd8383836111bb565b505050565b6107ed83838360405180602001604052806000815250610b53565b505050565b6000806107fe836114b4565b9050600073ffffffffffffffffffffffffffffffffffffffff168173ffffffffffffffffffffffffffffffffffffffff160361086f576040517f08c379a00000000000000000000000000000000000000000000000000000000081526004016108669061259a565b60405180910390fd5b80915050919050565b60086040518060a00160405280600a5481526020013373ffffffffffffffffffffffffffffffffffffffff1681526020018481526020018360ff1681526020016000151581525090806001815401808255809150506001900390600052602060002090600402016000909190919091506000820151816000015560208201518160010160006101000a81548173ffffffffffffffffffffffffffffffffffffffff021916908373ffffffffffffffffffffffffffffffffffffffff1602179055506040820151816002015560608201518160030160006101000a81548160ff021916908360ff16021790555060808201518160030160016101000a81548160ff0219169083151502179055505050600a6000815480929190610999906125e9565b91905055505050565b600681815481106109b257600080fd5b906000526020600020016000915054906101000a900473ffffffffffffffffffffffffffffffffffffffff1681565b60008073ffffffffffffffffffffffffffffffffffffffff168273ffffffffffffffffffffffffffffffffffffffff1603610a51576040517f08c379a0000000000000000000000000000000000000000000000000000000008152600401610a48906126a3565b60405180910390fd5b600360008373ffffffffffffffffffffffffffffffffffffffff1673ffffffffffffffffffffffffffffffffffffffff168152602001908152602001600020549050919050565b600760009054906101000a900460ff1681565b606060018054610aba90612367565b80601f0160208091040260200160405190810160405280929190818152602001828054610ae690612367565b8015610b335780601f10610b0857610100808354040283529160200191610b33565b820191906000526020600020905b815481529060010190602001808311610b1657829003601f168201915b5050505050905090565b610b4f610b48611065565b83836114f1565b5050565b610b64610b5e611065565b83611126565b610ba3576040517f08c379a0000000000000000000000000000000000000000000000000000000008152600401610b9a9061252e565b60405180910390fd5b610baf8484848461165d565b50505050565b6060610bc08261101a565b6000610bca6116b9565b90506000815111610bea5760405180602001604052806000815250610c15565b80610bf4846116d0565b604051602001610c059291906126ff565b6040516020818303038152906040525b915050919050565b600060088381548110610c3357610c32612723565b5b90600052602060002090600402019050600060068054905011610c8b576040517f08c379a0000000000000000000000000000000000000000000000000000000008152600401610c829061279e565b60405180910390fd5b3373ffffffffffffffffffffffffffffffffffffffff168160010160009054906101000a900473ffffffffffffffffffffffffffffffffffffffff1673ffffffffffffffffffffffffffffffffffffffff1603610d1d576040517f08c379a0000000000000000000000000000000000000000000000000000000008152600401610d149061280a565b60405180910390fd5b816009600085815260200190815260200160002060003373ffffffffffffffffffffffffffffffffffffffff1673ffffffffffffffffffffffffffffffffffffffff16815260200190815260200160002060006101000a81548160ff0219169083151502179055506000805b600680549050811015610e595760096000868152602001908152602001600020600060068381548110610dbf57610dbe612723565b5b9060005260206000200160009054906101000a900473ffffffffffffffffffffffffffffffffffffffff1673ffffffffffffffffffffffffffffffffffffffff1673ffffffffffffffffffffffffffffffffffffffff16815260200190815260200160002060009054906101000a900460ff1615610e46578180610e42906125e9565b9250505b8080610e51906125e9565b915050610d89565b50600760009054906101000a900460ff1660ff168110610ee15760018260030160016101000a81548160ff02191690831515021790555060018260030160009054906101000a900460ff1660ff1603610ee057610edf8260010160009054906101000a900473ffffffffffffffffffffffffffffffffffffffff16338460020154610772565b5b5b50505050565b60096020528160005260406000206020528060005260406000206000915091509054906101000a900460ff1681565b600a5481565b6000600560008473ffffffffffffffffffffffffffffffffffffffff1673ffffffffffffffffffffffffffffffffffffffff16815260200190815260200160002060008373ffffffffffffffffffffffffffffffffffffffff1673ffffffffffffffffffffffffffffffffffffffff16815260200190815260200160002060009054906101000a900460ff16905092915050565b60007f01ffc9a7000000000000000000000000000000000000000000000000000000007bffffffffffffffffffffffffffffffffffffffffffffffffffffffff1916827bffffffffffffffffffffffffffffffffffffffffffffffffffffffff1916149050919050565b6110238161179e565b611062576040517f08c379a00000000000000000000000000000000000000000000000000000000081526004016110599061259a565b60405180910390fd5b50565b600033905090565b816004600083815260200190815260200160002060006101000a81548173ffffffffffffffffffffffffffffffffffffffff021916908373ffffffffffffffffffffffffffffffffffffffff160217905550808273ffffffffffffffffffffffffffffffffffffffff166110e0836107f2565b73ffffffffffffffffffffffffffffffffffffffff167f8c5be1e5ebec7d5bd14f71427d1e84f3dd0314c0f7b2291e5b200ac8c7c3b92560405160405180910390a45050565b600080611132836107f2565b90508073ffffffffffffffffffffffffffffffffffffffff168473ffffffffffffffffffffffffffffffffffffffff16148061117457506111738185610f1c565b5b806111b257508373ffffffffffffffffffffffffffffffffffffffff1661119a84610615565b73ffffffffffffffffffffffffffffffffffffffff16145b91505092915050565b8273ffffffffffffffffffffffffffffffffffffffff166111db826107f2565b73ffffffffffffffffffffffffffffffffffffffff1614611231576040517f08c379a00000000000000000000000000000000000000000000000000000000081526004016112289061289c565b60405180910390fd5b600073ffffffffffffffffffffffffffffffffffffffff168273ffffffffffffffffffffffffffffffffffffffff16036112a0576040517f08c379a00000000000000000000000000000000000000000000000000000000081526004016112979061292e565b60405180910390fd5b6112ad83838360016117df565b8273ffffffffffffffffffffffffffffffffffffffff166112cd826107f2565b73ffffffffffffffffffffffffffffffffffffffff1614611323576040517f08c379a000000000000000000000000000000000000000000000000000000000815260040161131a9061289c565b60405180910390fd5b6004600082815260200190815260200160002060006101000a81549073ffffffffffffffffffffffffffffffffffffffff02191690556001600360008573ffffffffffffffffffffffffffffffffffffffff1673ffffffffffffffffffffffffffffffffffffffff168152602001908152602001600020600082825403925050819055506001600360008473ffffffffffffffffffffffffffffffffffffffff1673ffffffffffffffffffffffffffffffffffffffff16815260200190815260200160002060008282540192505081905550816002600083815260200190815260200160002060006101000a81548173ffffffffffffffffffffffffffffffffffffffff021916908373ffffffffffffffffffffffffffffffffffffffff160217905550808273ffffffffffffffffffffffffffffffffffffffff168473ffffffffffffffffffffffffffffffffffffffff167fddf252ad1be2c89b69c2b068fc378daa952ba7f163c4a11628f55a4df523b3ef60405160405180910390a46114af8383836001611905565b505050565b60006002600083815260200190815260200160002060009054906101000a900473ffffffffffffffffffffffffffffffffffffffff169050919050565b8173ffffffffffffffffffffffffffffffffffffffff168373ffffffffffffffffffffffffffffffffffffffff160361155f576040517f08c379a00000000000000000000000000000000000000000000000000000000081526004016115569061299a565b60405180910390fd5b80600560008573ffffffffffffffffffffffffffffffffffffffff1673ffffffffffffffffffffffffffffffffffffffff16815260200190815260200160002060008473ffffffffffffffffffffffffffffffffffffffff1673ffffffffffffffffffffffffffffffffffffffff16815260200190815260200160002060006101000a81548160ff0219169083151502179055508173ffffffffffffffffffffffffffffffffffffffff168373ffffffffffffffffffffffffffffffffffffffff167f17307eab39ab6107e8899845ad3d59bd9653f200f220920489ca2b5937696c31836040516116509190611dde565b60405180910390a3505050565b6116688484846111bb565b6116748484848461190b565b6116b3576040517f08c379a00000000000000000000000000000000000000000000000000000000081526004016116aa90612a2c565b60405180910390fd5b50505050565b606060405180602001604052806000815250905090565b6060600060016116df84611a92565b01905060008167ffffffffffffffff8111156116fe576116fd6120ca565b5b6040519080825280601f01601f1916602001820160405280156117305781602001600182028036833780820191505090505b509050600082602001820190505b600115611793578080600190039150507f3031323334353637383961626364656600000000000000000000000000000000600a86061a8153600a858161178757611786612a4c565b5b0494506000850361173e575b819350505050919050565b60008073ffffffffffffffffffffffffffffffffffffffff166117c0836114b4565b73ffffffffffffffffffffffffffffffffffffffff1614159050919050565b60018111156118ff57600073ffffffffffffffffffffffffffffffffffffffff168473ffffffffffffffffffffffffffffffffffffffff16146118735780600360008673ffffffffffffffffffffffffffffffffffffffff1673ffffffffffffffffffffffffffffffffffffffff168152602001908152602001600020600082825461186b9190612a7b565b925050819055505b600073ffffffffffffffffffffffffffffffffffffffff168373ffffffffffffffffffffffffffffffffffffffff16146118fe5780600360008573ffffffffffffffffffffffffffffffffffffffff1673ffffffffffffffffffffffffffffffffffffffff16815260200190815260200160002060008282546118f69190612aaf565b925050819055505b5b50505050565b50505050565b600061192c8473ffffffffffffffffffffffffffffffffffffffff16611be5565b15611a85578373ffffffffffffffffffffffffffffffffffffffff1663150b7a02611955611065565b8786866040518563ffffffff1660e01b81526004016119779493929190612b38565b6020604051808303816000875af19250505080156119b357506040513d601f19601f820116820180604052508101906119b09190612b99565b60015b611a35573d80600081146119e3576040519150601f19603f3d011682016040523d82523d6000602084013e6119e8565b606091505b506000815103611a2d576040517f08c379a0000000000000000000000000000000000000000000000000000000008152600401611a2490612a2c565b60405180910390fd5b805181602001fd5b63150b7a0260e01b7bffffffffffffffffffffffffffffffffffffffffffffffffffffffff1916817bffffffffffffffffffffffffffffffffffffffffffffffffffffffff191614915050611a8a565b600190505b949350505050565b600080600090507a184f03e93ff9f4daa797ed6e38ed64bf6a1f0100000000000000008310611af0577a184f03e93ff9f4daa797ed6e38ed64bf6a1f0100000000000000008381611ae657611ae5612a4c565b5b0492506040810190505b6d04ee2d6d415b85acef81000000008310611b2d576d04ee2d6d415b85acef81000000008381611b2357611b22612a4c565b5b0492506020810190505b662386f26fc100008310611b5c57662386f26fc100008381611b5257611b51612a4c565b5b0492506010810190505b6305f5e1008310611b85576305f5e1008381611b7b57611b7a612a4c565b5b0492506008810190505b6127108310611baa576127108381611ba057611b9f612a4c565b5b0492506004810190505b60648310611bcd5760648381611bc357611bc2612a4c565b5b0492506002810190505b600a8310611bdc576001810190505b80915050919050565b6000808273ffffffffffffffffffffffffffffffffffffffff163b119050919050565b6000604051905090565b600080fd5b600080fd5b6000819050919050565b611c2f81611c1c565b8114611c3a57600080fd5b50565b600081359050611c4c81611c26565b92915050565b600060208284031215611c6857611c67611c12565b5b6000611c7684828501611c3d565b91505092915050565b611c8881611c1c565b82525050565b600073ffffffffffffffffffffffffffffffffffffffff82169050919050565b6000611cb982611c8e565b9050919050565b611cc981611cae565b82525050565b600060ff82169050919050565b611ce581611ccf565b82525050565b60008115159050919050565b611d0081611ceb565b82525050565b600060a082019050611d1b6000830188611c7f565b611d286020830187611cc0565b611d356040830186611c7f565b611d426060830185611cdc565b611d4f6080830184611cf7565b9695505050505050565b60007fffffffff0000000000000000000000000000000000000000000000000000000082169050919050565b611d8e81611d59565b8114611d9957600080fd5b50565b600081359050611dab81611d85565b92915050565b600060208284031215611dc757611dc6611c12565b5b6000611dd584828501611d9c565b91505092915050565b6000602082019050611df36000830184611cf7565b92915050565b600081519050919050565b600082825260208201905092915050565b60005b83811015611e33578082015181840152602081019050611e18565b60008484015250505050565b6000601f19601f8301169050919050565b6000611e5b82611df9565b611e658185611e04565b9350611e75818560208601611e15565b611e7e81611e3f565b840191505092915050565b60006020820190508181036000830152611ea38184611e50565b905092915050565b6000602082019050611ec06000830184611cc0565b92915050565b611ecf81611cae565b8114611eda57600080fd5b50565b600081359050611eec81611ec6565b92915050565b60008060408385031215611f0957611f08611c12565b5b6000611f1785828601611edd565b9250506020611f2885828601611c3d565b9150509250929050565b600080600060608486031215611f4b57611f4a611c12565b5b6000611f5986828701611edd565b9350506020611f6a86828701611edd565b9250506040611f7b86828701611c3d565b9150509250925092565b611f8e81611ccf565b8114611f9957600080fd5b50565b600081359050611fab81611f85565b92915050565b60008060408385031215611fc857611fc7611c12565b5b6000611fd685828601611c3d565b9250506020611fe785828601611f9c565b9150509250929050565b60006020828403121561200757612006611c12565b5b600061201584828501611edd565b91505092915050565b60006020820190506120336000830184611c7f565b92915050565b600060208201905061204e6000830184611cdc565b92915050565b61205d81611ceb565b811461206857600080fd5b50565b60008135905061207a81612054565b92915050565b6000806040838503121561209757612096611c12565b5b60006120a585828601611edd565b92505060206120b68582860161206b565b9150509250929050565b600080fd5b600080fd5b7f4e487b7100000000000000000000000000000000000000000000000000000000600052604160045260246000fd5b61210282611e3f565b810181811067ffffffffffffffff82111715612121576121206120ca565b5b80604052505050565b6000612134611c08565b905061214082826120f9565b919050565b600067ffffffffffffffff8211156121605761215f6120ca565b5b61216982611e3f565b9050602081019050919050565b82818337600083830152505050565b600061219861219384612145565b61212a565b9050828152602081018484840111156121b4576121b36120c5565b5b6121bf848285612176565b509392505050565b600082601f8301126121dc576121db6120c0565b5b81356121ec848260208601612185565b91505092915050565b6000806000806080858703121561220f5761220e611c12565b5b600061221d87828801611edd565b945050602061222e87828801611edd565b935050604061223f87828801611c3d565b925050606085013567ffffffffffffffff8111156122605761225f611c17565b5b61226c878288016121c7565b91505092959194509250565b6000806040838503121561228f5761228e611c12565b5b600061229d85828601611c3d565b92505060206122ae8582860161206b565b9150509250929050565b600080604083850312156122cf576122ce611c12565b5b60006122dd85828601611c3d565b92505060206122ee85828601611edd565b9150509250929050565b6000806040838503121561230f5761230e611c12565b5b600061231d85828601611edd565b925050602061232e85828601611edd565b9150509250929050565b7f4e487b7100000000000000000000000000000000000000000000000000000000600052602260045260246000fd5b6000600282049050600182168061237f57607f821691505b60208210810361239257612391612338565b5b50919050565b7f4552433732313a20617070726f76616c20746f2063757272656e74206f776e6560008201527f7200000000000000000000000000000000000000000000000000000000000000602082015250565b60006123f4602183611e04565b91506123ff82612398565b604082019050919050565b60006020820190508181036000830152612423816123e7565b9050919050565b7f4552433732313a20617070726f76652063616c6c6572206973206e6f7420746f60008201527f6b656e206f776e6572206f7220617070726f76656420666f7220616c6c000000602082015250565b6000612486603d83611e04565b91506124918261242a565b604082019050919050565b600060208201905081810360008301526124b581612479565b9050919050565b7f4552433732313a2063616c6c6572206973206e6f7420746f6b656e206f776e6560008201527f72206f7220617070726f76656400000000000000000000000000000000000000602082015250565b6000612518602d83611e04565b9150612523826124bc565b604082019050919050565b600060208201905081810360008301526125478161250b565b9050919050565b7f4552433732313a20696e76616c696420746f6b656e2049440000000000000000600082015250565b6000612584601883611e04565b915061258f8261254e565b602082019050919050565b600060208201905081810360008301526125b381612577565b9050919050565b7f4e487b7100000000000000000000000000000000000000000000000000000000600052601160045260246000fd5b60006125f482611c1c565b91507fffffffffffffffffffffffffffffffffffffffffffffffffffffffffffffffff8203612626576126256125ba565b5b600182019050919050565b7f4552433732313a2061646472657373207a65726f206973206e6f74206120766160008201527f6c6964206f776e65720000000000000000000000000000000000000000000000602082015250565b600061268d602983611e04565b915061269882612631565b604082019050919050565b600060208201905081810360008301526126bc81612680565b9050919050565b600081905092915050565b60006126d982611df9565b6126e381856126c3565b93506126f3818560208601611e15565b80840191505092915050565b600061270b82856126ce565b915061271782846126ce565b91508190509392505050565b7f4e487b7100000000000000000000000000000000000000000000000000000000600052603260045260246000fd5b7f4e6f20636f2d7369676e65727320666f756e6400000000000000000000000000600082015250565b6000612788601383611e04565b915061279382612752565b602082019050919050565b600060208201905081810360008301526127b78161277b565b9050919050565b7f50726f706f7365722063616e6e6f7420766f7465000000000000000000000000600082015250565b60006127f4601483611e04565b91506127ff826127be565b602082019050919050565b60006020820190508181036000830152612823816127e7565b9050919050565b7f4552433732313a207472616e736665722066726f6d20696e636f72726563742060008201527f6f776e6572000000000000000000000000000000000000000000000000000000602082015250565b6000612886602583611e04565b91506128918261282a565b604082019050919050565b600060208201905081810360008301526128b581612879565b9050919050565b7f4552433732313a207472616e7366657220746f20746865207a65726f2061646460008201527f7265737300000000000000000000000000000000000000000000000000000000602082015250565b6000612918602483611e04565b9150612923826128bc565b604082019050919050565b600060208201905081810360008301526129478161290b565b9050919050565b7f4552433732313a20617070726f766520746f2063616c6c657200000000000000600082015250565b6000612984601983611e04565b915061298f8261294e565b602082019050919050565b600060208201905081810360008301526129b381612977565b9050919050565b7f4552433732313a207472616e7366657220746f206e6f6e20455243373231526560008201527f63656976657220696d706c656d656e7465720000000000000000000000000000602082015250565b6000612a16603283611e04565b9150612a21826129ba565b604082019050919050565b60006020820190508181036000830152612a4581612a09565b9050919050565b7f4e487b7100000000000000000000000000000000000000000000000000000000600052601260045260246000fd5b6000612a8682611c1c565b9150612a9183611c1c565b9250828203905081811115612aa957612aa86125ba565b5b92915050565b6000612aba82611c1c565b9150612ac583611c1c565b9250828201905080821115612add57612adc6125ba565b5b92915050565b600081519050919050565b600082825260208201905092915050565b6000612b0a82612ae3565b612b148185612aee565b9350612b24818560208601611e15565b612b2d81611e3f565b840191505092915050565b6000608082019050612b4d6000830187611cc0565b612b5a6020830186611cc0565b612b676040830185611c7f565b8181036060830152612b798184612aff565b905095945050505050565b600081519050612b9381611d85565b92915050565b600060208284031215612baf57612bae611c12565b5b6000612bbd84828501612b84565b9150509291505056fea26469706673582212203300c189e3df55d641ea76ff8b1bc1639d5a9318cdc314d17d7c3b27c73b785864736f6c63430008120033",
  "immutableReferences": {},
  "source": "// SPDX-License-Identifier: GPL-3.0-or-later\npragma solidity ^0.8.0;\n\nimport \"@openzeppelin/contracts/token/ERC721/ERC721.sol\";\n\ncontract msnftold is ERC721 {\n    // Co-signers\n    address[] public coSigners;\n\n    // Number of required signatures\n    uint8 public requiredSignatures;\n\n    // Proposals\n    struct Proposal {\n        uint id;\n        address proposer;\n        uint256 tokenId;\n        uint8 action;\n        bool approved;\n    }\n    Proposal[] public proposals;\n\n    // Votes\n    mapping(uint => mapping(address => bool)) public votes;\n\n    // Total number of proposals\n    uint public proposalCount;\n\n    constructor(string memory name, string memory symbol, address[] memory _coSigners, uint8 _requiredSignatures) public ERC721(name, symbol) {\n        coSigners = _coSigners;\n        requiredSignatures = _requiredSignatures;\n    }\n\n    function propose(uint256 _tokenId, uint8 _action) public {\n        proposals.push(Proposal(proposalCount, msg.sender, _tokenId, _action, false));\n        proposalCount++;\n    }\n\n    function vote(uint _proposalId, bool _approval) public {\n        Proposal storage proposal = proposals[_proposalId];\n        require(coSigners.length > 0, \"No co-signers found\");\n        require(proposal.proposer != msg.sender, \"Proposer cannot vote\");\n        \n        votes[_proposalId][msg.sender] = _approval;\n        \n        uint approvalCount = 0;\n        for (uint i = 0; i < coSigners.length; i++) {\n            if (votes[_proposalId][coSigners[i]]) {\n                approvalCount++;\n            }\n        }\n        \n        if (approvalCount >= requiredSignatures) {\n            proposal.approved = true;\n            \n            if (proposal.action == 1) {\n                transferFrom(proposal.proposer, msg.sender, proposal.tokenId);\n            }\n        }\n    }\n\n}",
  "sourcePath": "/home/alexs/Documents/MantleHackathon/MultisigNFT/contracts/msnft-old.sol",
  "compiler": {
    "name": "solc",
    "version": "0.8.18+commit.87f61d96.Emscripten.clang"
  },
  "schemaVersion": "3.4.11",
  "updatedAt": "2023-02-19T21:35:47.449Z",
  "devdoc": {
    "events": {
      "Approval(address,address,uint256)": {
        "details": "Emitted when `owner` enables `approved` to manage the `tokenId` token."
      },
      "ApprovalForAll(address,address,bool)": {
        "details": "Emitted when `owner` enables or disables (`approved`) `operator` to manage all of its assets."
      },
      "Transfer(address,address,uint256)": {
        "details": "Emitted when `tokenId` token is transferred from `from` to `to`."
      }
    },
    "kind": "dev",
    "methods": {
      "approve(address,uint256)": {
        "details": "See {IERC721-approve}."
      },
      "balanceOf(address)": {
        "details": "See {IERC721-balanceOf}."
      },
      "getApproved(uint256)": {
        "details": "See {IERC721-getApproved}."
      },
      "isApprovedForAll(address,address)": {
        "details": "See {IERC721-isApprovedForAll}."
      },
      "name()": {
        "details": "See {IERC721Metadata-name}."
      },
      "ownerOf(uint256)": {
        "details": "See {IERC721-ownerOf}."
      },
      "safeTransferFrom(address,address,uint256)": {
        "details": "See {IERC721-safeTransferFrom}."
      },
      "safeTransferFrom(address,address,uint256,bytes)": {
        "details": "See {IERC721-safeTransferFrom}."
      },
      "setApprovalForAll(address,bool)": {
        "details": "See {IERC721-setApprovalForAll}."
      },
      "supportsInterface(bytes4)": {
        "details": "See {IERC165-supportsInterface}."
      },
      "symbol()": {
        "details": "See {IERC721Metadata-symbol}."
      },
      "tokenURI(uint256)": {
        "details": "See {IERC721Metadata-tokenURI}."
      },
      "transferFrom(address,address,uint256)": {
        "details": "See {IERC721-transferFrom}."
      }
    },
    "version": 1
  },
  "userdoc": {
    "kind": "user",
    "methods": {},
    "version": 1
  }
}