{
  "contractName": "MultisigNFT",
  "abi": [
    {
      "inputs": [],
      "stateMutability": "nonpayable",
      "type": "constructor"
    },
    {
      "anonymous": false,
      "inputs": [
        {
          "indexed": true,
          "internalType": "address",
          "name": "owner",
          "type": "address"
        },
        {
          "indexed": true,
          "internalType": "address",
          "name": "approved",
          "type": "address"
        },
        {
          "indexed": true,
          "internalType": "uint256",
          "name": "tokenId",
          "type": "uint256"
        }
      ],
      "name": "Approval",
      "type": "event"
    },
    {
      "anonymous": false,
      "inputs": [
        {
          "indexed": true,
          "internalType": "address",
          "name": "owner",
          "type": "address"
        },
        {
          "indexed": true,
          "internalType": "address",
          "name": "operator",
          "type": "address"
        },
        {
          "indexed": false,
          "internalType": "bool",
          "name": "approved",
          "type": "bool"
        }
      ],
      "name": "ApprovalForAll",
      "type": "event"
    },
    {
      "anonymous": false,
      "inputs": [
        {
          "indexed": true,
          "internalType": "address",
          "name": "previousOwner",
          "type": "address"
        },
        {
          "indexed": true,
          "internalType": "address",
          "name": "newOwner",
          "type": "address"
        }
      ],
      "name": "OwnershipTransferred",
      "type": "event"
    },
    {
      "anonymous": false,
      "inputs": [
        {
          "indexed": true,
          "internalType": "address",
          "name": "from",
          "type": "address"
        },
        {
          "indexed": true,
          "internalType": "address",
          "name": "to",
          "type": "address"
        },
        {
          "indexed": true,
          "internalType": "uint256",
          "name": "tokenId",
          "type": "uint256"
        }
      ],
      "name": "Transfer",
      "type": "event"
    },
    {
      "inputs": [],
      "name": "owner",
      "outputs": [
        {
          "internalType": "address",
          "name": "",
          "type": "address"
        }
      ],
      "stateMutability": "view",
      "type": "function",
      "constant": true
    },
    {
      "inputs": [],
      "name": "renounceOwnership",
      "outputs": [],
      "stateMutability": "nonpayable",
      "type": "function"
    },
    {
      "inputs": [
        {
          "internalType": "bytes4",
          "name": "interfaceId",
          "type": "bytes4"
        }
      ],
      "name": "supportsInterface",
      "outputs": [
        {
          "internalType": "bool",
          "name": "",
          "type": "bool"
        }
      ],
      "stateMutability": "view",
      "type": "function",
      "constant": true
    },
    {
      "inputs": [
        {
          "internalType": "address",
          "name": "newOwner",
          "type": "address"
        }
      ],
      "name": "transferOwnership",
      "outputs": [],
      "stateMutability": "nonpayable",
      "type": "function"
    },
    {
      "inputs": [
        {
          "internalType": "address[]",
          "name": "coSigners",
          "type": "address[]"
        },
        {
          "internalType": "uint8",
          "name": "requiredSignatures",
          "type": "uint8"
        }
      ],
      "name": "mint",
      "outputs": [],
      "stateMutability": "nonpayable",
      "type": "function"
    },
    {
      "inputs": [
        {
          "internalType": "uint256",
          "name": "tokenId",
          "type": "uint256"
        },
        {
          "internalType": "uint8",
          "name": "action",
          "type": "uint8"
        }
      ],
      "name": "propose",
      "outputs": [],
      "stateMutability": "nonpayable",
      "type": "function"
    },
    {
      "inputs": [
        {
          "internalType": "uint256",
          "name": "proposalId",
          "type": "uint256"
        },
        {
          "internalType": "bool",
          "name": "approval",
          "type": "bool"
        }
      ],
      "name": "vote",
      "outputs": [],
      "stateMutability": "nonpayable",
      "type": "function"
    },
    {
      "inputs": [
        {
          "internalType": "uint256",
          "name": "proposalId",
          "type": "uint256"
        }
      ],
      "name": "getProposal",
      "outputs": [
        {
          "internalType": "address",
          "name": "",
          "type": "address"
        },
        {
          "internalType": "uint256",
          "name": "",
          "type": "uint256"
        },
        {
          "internalType": "uint32",
          "name": "",
          "type": "uint32"
        },
        {
          "internalType": "bool",
          "name": "",
          "type": "bool"
        }
      ],
      "stateMutability": "view",
      "type": "function",
      "constant": true
    },
    {
      "inputs": [],
      "name": "getProposalCount",
      "outputs": [
        {
          "internalType": "uint256",
          "name": "",
          "type": "uint256"
        }
      ],
      "stateMutability": "view",
      "type": "function",
      "constant": true
    },
    {
      "inputs": [
        {
          "internalType": "address",
          "name": "owner",
          "type": "address"
        }
      ],
      "name": "balanceOf",
      "outputs": [
        {
          "internalType": "uint256",
          "name": "",
          "type": "uint256"
        }
      ],
      "stateMutability": "view",
      "type": "function",
      "constant": true
    },
    {
      "inputs": [
        {
          "internalType": "uint256",
          "name": "tokenId",
          "type": "uint256"
        }
      ],
      "name": "ownerOf",
      "outputs": [
        {
          "internalType": "address",
          "name": "",
          "type": "address"
        }
      ],
      "stateMutability": "view",
      "type": "function",
      "constant": true
    },
    {
      "inputs": [],
      "name": "name",
      "outputs": [
        {
          "internalType": "string",
          "name": "",
          "type": "string"
        }
      ],
      "stateMutability": "view",
      "type": "function",
      "constant": true
    },
    {
      "inputs": [],
      "name": "symbol",
      "outputs": [
        {
          "internalType": "string",
          "name": "",
          "type": "string"
        }
      ],
      "stateMutability": "view",
      "type": "function",
      "constant": true
    },
    {
      "inputs": [
        {
          "internalType": "uint256",
          "name": "tokenId",
          "type": "uint256"
        }
      ],
      "name": "tokenURI",
      "outputs": [
        {
          "internalType": "string",
          "name": "",
          "type": "string"
        }
      ],
      "stateMutability": "view",
      "type": "function",
      "constant": true
    },
    {
      "inputs": [
        {
          "internalType": "address",
          "name": "to",
          "type": "address"
        },
        {
          "internalType": "uint256",
          "name": "tokenId",
          "type": "uint256"
        }
      ],
      "name": "approve",
      "outputs": [],
      "stateMutability": "nonpayable",
      "type": "function"
    },
    {
      "inputs": [
        {
          "internalType": "uint256",
          "name": "tokenId",
          "type": "uint256"
        }
      ],
      "name": "getApproved",
      "outputs": [
        {
          "internalType": "address",
          "name": "",
          "type": "address"
        }
      ],
      "stateMutability": "view",
      "type": "function",
      "constant": true
    },
    {
      "inputs": [
        {
          "internalType": "address",
          "name": "operator",
          "type": "address"
        },
        {
          "internalType": "bool",
          "name": "approved",
          "type": "bool"
        }
      ],
      "name": "setApprovalForAll",
      "outputs": [],
      "stateMutability": "nonpayable",
      "type": "function"
    },
    {
      "inputs": [
        {
          "internalType": "address",
          "name": "owner",
          "type": "address"
        },
        {
          "internalType": "address",
          "name": "operator",
          "type": "address"
        }
      ],
      "name": "isApprovedForAll",
      "outputs": [
        {
          "internalType": "bool",
          "name": "",
          "type": "bool"
        }
      ],
      "stateMutability": "view",
      "type": "function",
      "constant": true
    },
    {
      "inputs": [
        {
          "internalType": "address",
          "name": "from",
          "type": "address"
        },
        {
          "internalType": "address",
          "name": "to",
          "type": "address"
        },
        {
          "internalType": "uint256",
          "name": "tokenId",
          "type": "uint256"
        }
      ],
      "name": "transferFrom",
      "outputs": [],
      "stateMutability": "nonpayable",
      "type": "function"
    },
    {
      "inputs": [
        {
          "internalType": "address",
          "name": "from",
          "type": "address"
        },
        {
          "internalType": "address",
          "name": "to",
          "type": "address"
        },
        {
          "internalType": "uint256",
          "name": "tokenId",
          "type": "uint256"
        }
      ],
      "name": "safeTransferFrom",
      "outputs": [],
      "stateMutability": "nonpayable",
      "type": "function"
    },
    {
      "inputs": [
        {
          "internalType": "address",
          "name": "from",
          "type": "address"
        },
        {
          "internalType": "address",
          "name": "to",
          "type": "address"
        },
        {
          "internalType": "uint256",
          "name": "tokenId",
          "type": "uint256"
        },
        {
          "internalType": "bytes",
          "name": "data",
          "type": "bytes"
        }
      ],
      "name": "safeTransferFrom",
      "outputs": [],
      "stateMutability": "nonpayable",
      "type": "function"
    }
  ],
  "bytecode": "0x60806040523480156200001157600080fd5b506040518060400160405280600b81526020017f4d756c74697369674e46540000000000000000000000000000000000000000008152506040518060400160405280600581526020017f4d534e465400000000000000000000000000000000000000000000000000000081525081600090816200008f91906200042a565b508060019081620000a191906200042a565b505050620000c4620000b8620000e260201b60201c565b620000ea60201b60201c565b60016009819055506001601181905550600060138190555062000511565b600033905090565b6000600660009054906101000a900473ffffffffffffffffffffffffffffffffffffffff16905081600660006101000a81548173ffffffffffffffffffffffffffffffffffffffff021916908373ffffffffffffffffffffffffffffffffffffffff1602179055508173ffffffffffffffffffffffffffffffffffffffff168173ffffffffffffffffffffffffffffffffffffffff167f8be0079c531659141344cd1fd0a4f28419497f9722a3daafe3b4186f6b6457e060405160405180910390a35050565b600081519050919050565b7f4e487b7100000000000000000000000000000000000000000000000000000000600052604160045260246000fd5b7f4e487b7100000000000000000000000000000000000000000000000000000000600052602260045260246000fd5b600060028204905060018216806200023257607f821691505b602082108103620002485762000247620001ea565b5b50919050565b60008190508160005260206000209050919050565b60006020601f8301049050919050565b600082821b905092915050565b600060088302620002b27fffffffffffffffffffffffffffffffffffffffffffffffffffffffffffffffff8262000273565b620002be868362000273565b95508019841693508086168417925050509392505050565b6000819050919050565b6000819050919050565b60006200030b62000305620002ff84620002d6565b620002e0565b620002d6565b9050919050565b6000819050919050565b6200032783620002ea565b6200033f620003368262000312565b84845462000280565b825550505050565b600090565b6200035662000347565b620003638184846200031c565b505050565b5b818110156200038b576200037f6000826200034c565b60018101905062000369565b5050565b601f821115620003da57620003a4816200024e565b620003af8462000263565b81016020851015620003bf578190505b620003d7620003ce8562000263565b83018262000368565b50505b505050565b600082821c905092915050565b6000620003ff60001984600802620003df565b1980831691505092915050565b60006200041a8383620003ec565b9150826002028217905092915050565b6200043582620001b0565b67ffffffffffffffff811115620004515762000450620001bb565b5b6200045d825462000219565b6200046a8282856200038f565b600060209050601f831160018114620004a257600084156200048d578287015190505b6200049985826200040c565b86555062000509565b601f198416620004b2866200024e565b60005b82811015620004dc57848901518255600182019150602085019450602081019050620004b5565b86831015620004fc5784890151620004f8601f891682620003ec565b8355505b6001600288020188555050505b505050505050565b61382080620005216000396000f3fe608060405234801561001057600080fd5b50600436106101375760003560e01c80638da5cb5b116100b8578063c7f758a81161007c578063c7f758a814610326578063c87b56dd14610359578063c9d27afe14610389578063e985e9c5146103a5578063f2fde38b146103d5578063f8688e9f146103f157610137565b80638da5cb5b1461029457806395d89b41146102b2578063a22cb465146102d0578063b88d4fde146102ec578063c08cc02d1461030857610137565b806342842e0e116100ff57806342842e0e146101f25780636352211e1461020e57806369c5a4c81461023e57806370a082311461025a578063715018a61461028a57610137565b806301ffc9a71461013c57806306fdde031461016c578063081812fc1461018a578063095ea7b3146101ba57806323b872dd146101d6575b600080fd5b610156600480360381019061015191906126c7565b61040d565b604051610163919061270f565b60405180910390f35b6101746104ef565b60405161018191906127ba565b60405180910390f35b6101a4600480360381019061019f9190612812565b610581565b6040516101b19190612880565b60405180910390f35b6101d460048036038101906101cf91906128c7565b6105c7565b005b6101f060048036038101906101eb9190612907565b6106de565b005b61020c60048036038101906102079190612907565b61073e565b005b61022860048036038101906102239190612812565b61075e565b6040516102359190612880565b60405180910390f35b61025860048036038101906102539190612993565b6107e4565b005b610274600480360381019061026f91906129d3565b610945565b6040516102819190612a0f565b60405180910390f35b6102926109fc565b005b61029c610a10565b6040516102a99190612880565b60405180910390f35b6102ba610a3a565b6040516102c791906127ba565b60405180910390f35b6102ea60048036038101906102e59190612a56565b610acc565b005b61030660048036038101906103019190612bcb565b610ae2565b005b610310610b44565b60405161031d9190612a0f565b60405180910390f35b610340600480360381019061033b9190612812565b610b4e565b6040516103509493929190612c6d565b60405180910390f35b610373600480360381019061036e9190612812565b610bcc565b60405161038091906127ba565b60405180910390f35b6103a3600480360381019061039e9190612cb2565b610c34565b005b6103bf60048036038101906103ba9190612cf2565b610f71565b6040516103cc919061270f565b60405180910390f35b6103ef60048036038101906103ea91906129d3565b611005565b005b61040b60048036038101906104069190612d92565b611088565b005b60007f80ac58cd000000000000000000000000000000000000000000000000000000007bffffffffffffffffffffffffffffffffffffffffffffffffffffffff1916827bffffffffffffffffffffffffffffffffffffffffffffffffffffffff191614806104d857507f5b5e139f000000000000000000000000000000000000000000000000000000007bffffffffffffffffffffffffffffffffffffffffffffffffffffffff1916827bffffffffffffffffffffffffffffffffffffffffffffffffffffffff1916145b806104e857506104e782611253565b5b9050919050565b6060600780546104fe90612e21565b80601f016020809104026020016040519081016040528092919081815260200182805461052a90612e21565b80156105775780601f1061054c57610100808354040283529160200191610577565b820191906000526020600020905b81548152906001019060200180831161055a57829003601f168201915b5050505050905090565b600061058c826112bd565b600f600083815260200190815260200160002060009054906101000a900473ffffffffffffffffffffffffffffffffffffffff169050919050565b60006105d282611308565b90508073ffffffffffffffffffffffffffffffffffffffff168373ffffffffffffffffffffffffffffffffffffffff1603610642576040517f08c379a000000000000000000000000000000000000000000000000000000000815260040161063990612ec4565b60405180910390fd5b8073ffffffffffffffffffffffffffffffffffffffff1661066161138e565b73ffffffffffffffffffffffffffffffffffffffff161480610690575061068f8161068a61138e565b610f71565b5b6106cf576040517f08c379a00000000000000000000000000000000000000000000000000000000081526004016106c690612f56565b60405180910390fd5b6106d98383611396565b505050565b6106ef6106e961138e565b8261144f565b61072e576040517f08c379a000000000000000000000000000000000000000000000000000000000815260040161072590612fe8565b60405180910390fd5b6107398383836114e4565b505050565b61075983838360405180602001604052806000815250610ae2565b505050565b60008061076a836117dd565b9050600073ffffffffffffffffffffffffffffffffffffffff168173ffffffffffffffffffffffffffffffffffffffff16036107db576040517f08c379a00000000000000000000000000000000000000000000000000000000081526004016107d290613054565b60405180910390fd5b80915050919050565b600115156107f2833361181a565b1515148061080d57506001151561080983336118e7565b1515145b61081657600080fd5b600060405180608001604052803373ffffffffffffffffffffffffffffffffffffffff1681526020018481526020018360ff1663ffffffff168152602001600015158152509050806012600085815260200190815260200160002060008201518160000160006101000a81548173ffffffffffffffffffffffffffffffffffffffff021916908373ffffffffffffffffffffffffffffffffffffffff1602179055506020820151816001015560408201518160020160006101000a81548163ffffffff021916908363ffffffff16021790555060608201518160020160046101000a81548160ff02191690831515021790555090505060016011600082825461091f91906130a3565b9250508190555060016013600082825461093991906130a3565b92505081905550505050565b60008073ffffffffffffffffffffffffffffffffffffffff168273ffffffffffffffffffffffffffffffffffffffff16036109b5576040517f08c379a00000000000000000000000000000000000000000000000000000000081526004016109ac90613149565b60405180910390fd5b600e60008373ffffffffffffffffffffffffffffffffffffffff1673ffffffffffffffffffffffffffffffffffffffff168152602001908152602001600020549050919050565b610a0461195f565b610a0e60006119dd565b565b6000600660009054906101000a900473ffffffffffffffffffffffffffffffffffffffff16905090565b606060088054610a4990612e21565b80601f0160208091040260200160405190810160405280929190818152602001828054610a7590612e21565b8015610ac25780601f10610a9757610100808354040283529160200191610ac2565b820191906000526020600020905b815481529060010190602001808311610aa557829003601f168201915b5050505050905090565b610ade610ad761138e565b8383611aa3565b5050565b610af3610aed61138e565b8361144f565b610b32576040517f08c379a0000000000000000000000000000000000000000000000000000000008152600401610b2990612fe8565b60405180910390fd5b610b3e84848484611c0f565b50505050565b6000601354905090565b60008060008060006012600087815260200190815260200160002090508060000160009054906101000a900473ffffffffffffffffffffffffffffffffffffffff1681600101548260020160009054906101000a900463ffffffff168360020160049054906101000a900460ff169450945094509450509193509193565b6060610bd7826112bd565b6000610be1611c6b565b90506000815111610c015760405180602001604052806000815250610c2c565b80610c0b84611c82565b604051602001610c1c9291906131a5565b6040516020818303038152906040525b915050919050565b600060126000848152602001908152602001600020905060008160010154905060011515610c62823361181a565b15151480610c7d575060011515610c7982336118e7565b1515145b610c8657600080fd5b6000600a60008381526020019081526020016000208054905011610cdf576040517f08c379a0000000000000000000000000000000000000000000000000000000008152600401610cd690613215565b60405180910390fd5b826014600086815260200190815260200160002060003373ffffffffffffffffffffffffffffffffffffffff1673ffffffffffffffffffffffffffffffffffffffff16815260200190815260200160002060006101000a81548160ff0219169083151502179055506000805b600a600084815260200190815260200160002080549050811015610ef55760011515601460008881526020019081526020016000206000600a60008781526020019081526020016000208481548110610da757610da6613235565b5b9060005260206000200160009054906101000a900473ffffffffffffffffffffffffffffffffffffffff1673ffffffffffffffffffffffffffffffffffffffff1673ffffffffffffffffffffffffffffffffffffffff16815260200190815260200160002060009054906101000a900460ff16151503610e3557600182610e2e91906130a3565b9150610ee2565b60011515601460008881526020019081526020016000206000600c600087815260200190815260200160002060009054906101000a900473ffffffffffffffffffffffffffffffffffffffff1673ffffffffffffffffffffffffffffffffffffffff1673ffffffffffffffffffffffffffffffffffffffff16815260200190815260200160002060009054906101000a900460ff16151503610ee157600182610ede91906130a3565b91505b5b8080610eed90613264565b915050610d4b565b506015600083815260200190815260200160002060009054906101000a900460ff1660ff168110610f6a5760018360020160046101000a81548160ff02191690831515021790555060018360020160009054906101000a900463ffffffff1663ffffffff1603610f6957610f6882611d50565b5b5b5050505050565b6000601060008473ffffffffffffffffffffffffffffffffffffffff1673ffffffffffffffffffffffffffffffffffffffff16815260200190815260200160002060008373ffffffffffffffffffffffffffffffffffffffff1673ffffffffffffffffffffffffffffffffffffffff16815260200190815260200160002060009054906101000a900460ff16905092915050565b61100d61195f565b600073ffffffffffffffffffffffffffffffffffffffff168173ffffffffffffffffffffffffffffffffffffffff160361107c576040517f08c379a00000000000000000000000000000000000000000000000000000000081526004016110739061331e565b60405180910390fd5b611085816119dd565b50565b61109433600954611e9e565b8282600a6000600954815260200190815260200160002091906110b892919061259e565b5060005b83839050811015611159576001600b60008686858181106110e0576110df613235565b5b90506020020160208101906110f591906129d3565b73ffffffffffffffffffffffffffffffffffffffff1673ffffffffffffffffffffffffffffffffffffffff16815260200190815260200160002060006101000a81548160ff021916908315150217905550808061115190613264565b9150506110bc565b508060156000600954815260200190815260200160002060006101000a81548160ff021916908360ff16021790555033600c6000600954815260200190815260200160002060006101000a81548173ffffffffffffffffffffffffffffffffffffffff021916908373ffffffffffffffffffffffffffffffffffffffff1602179055506001600d60003373ffffffffffffffffffffffffffffffffffffffff1673ffffffffffffffffffffffffffffffffffffffff16815260200190815260200160002060006101000a81548160ff02191690831515021790555060016009600082825461124791906130a3565b92505081905550505050565b60007f01ffc9a7000000000000000000000000000000000000000000000000000000007bffffffffffffffffffffffffffffffffffffffffffffffffffffffff1916827bffffffffffffffffffffffffffffffffffffffffffffffffffffffff1916149050919050565b6112c681611ebc565b611305576040517f08c379a00000000000000000000000000000000000000000000000000000000081526004016112fc90613054565b60405180910390fd5b50565b600080611314836117dd565b9050600073ffffffffffffffffffffffffffffffffffffffff168173ffffffffffffffffffffffffffffffffffffffff1603611385576040517f08c379a000000000000000000000000000000000000000000000000000000000815260040161137c90613054565b60405180910390fd5b80915050919050565b600033905090565b816004600083815260200190815260200160002060006101000a81548173ffffffffffffffffffffffffffffffffffffffff021916908373ffffffffffffffffffffffffffffffffffffffff160217905550808273ffffffffffffffffffffffffffffffffffffffff1661140983611308565b73ffffffffffffffffffffffffffffffffffffffff167f8c5be1e5ebec7d5bd14f71427d1e84f3dd0314c0f7b2291e5b200ac8c7c3b92560405160405180910390a45050565b60008061145b83611308565b90508073ffffffffffffffffffffffffffffffffffffffff168473ffffffffffffffffffffffffffffffffffffffff16148061149d575061149c8185610f71565b5b806114db57508373ffffffffffffffffffffffffffffffffffffffff166114c384610581565b73ffffffffffffffffffffffffffffffffffffffff16145b91505092915050565b8273ffffffffffffffffffffffffffffffffffffffff1661150482611308565b73ffffffffffffffffffffffffffffffffffffffff161461155a576040517f08c379a0000000000000000000000000000000000000000000000000000000008152600401611551906133b0565b60405180910390fd5b600073ffffffffffffffffffffffffffffffffffffffff168273ffffffffffffffffffffffffffffffffffffffff16036115c9576040517f08c379a00000000000000000000000000000000000000000000000000000000081526004016115c090613442565b60405180910390fd5b6115d68383836001611efd565b8273ffffffffffffffffffffffffffffffffffffffff166115f682611308565b73ffffffffffffffffffffffffffffffffffffffff161461164c576040517f08c379a0000000000000000000000000000000000000000000000000000000008152600401611643906133b0565b60405180910390fd5b6004600082815260200190815260200160002060006101000a81549073ffffffffffffffffffffffffffffffffffffffff02191690556001600360008573ffffffffffffffffffffffffffffffffffffffff1673ffffffffffffffffffffffffffffffffffffffff168152602001908152602001600020600082825403925050819055506001600360008473ffffffffffffffffffffffffffffffffffffffff1673ffffffffffffffffffffffffffffffffffffffff16815260200190815260200160002060008282540192505081905550816002600083815260200190815260200160002060006101000a81548173ffffffffffffffffffffffffffffffffffffffff021916908373ffffffffffffffffffffffffffffffffffffffff160217905550808273ffffffffffffffffffffffffffffffffffffffff168473ffffffffffffffffffffffffffffffffffffffff167fddf252ad1be2c89b69c2b068fc378daa952ba7f163c4a11628f55a4df523b3ef60405160405180910390a46117d88383836001612023565b505050565b60006002600083815260200190815260200160002060009054906101000a900473ffffffffffffffffffffffffffffffffffffffff169050919050565b600080600090505b600a6000858152602001908152602001600020805490508110156118df578273ffffffffffffffffffffffffffffffffffffffff16600a6000868152602001908152602001600020828154811061187c5761187b613235565b5b9060005260206000200160009054906101000a900473ffffffffffffffffffffffffffffffffffffffff1673ffffffffffffffffffffffffffffffffffffffff16036118cc5760019150506118e1565b80806118d790613264565b915050611822565b505b92915050565b60008173ffffffffffffffffffffffffffffffffffffffff16600c600085815260200190815260200160002060009054906101000a900473ffffffffffffffffffffffffffffffffffffffff1673ffffffffffffffffffffffffffffffffffffffff16036119585760019050611959565b5b92915050565b61196761138e565b73ffffffffffffffffffffffffffffffffffffffff16611985610a10565b73ffffffffffffffffffffffffffffffffffffffff16146119db576040517f08c379a00000000000000000000000000000000000000000000000000000000081526004016119d2906134ae565b60405180910390fd5b565b6000600660009054906101000a900473ffffffffffffffffffffffffffffffffffffffff16905081600660006101000a81548173ffffffffffffffffffffffffffffffffffffffff021916908373ffffffffffffffffffffffffffffffffffffffff1602179055508173ffffffffffffffffffffffffffffffffffffffff168173ffffffffffffffffffffffffffffffffffffffff167f8be0079c531659141344cd1fd0a4f28419497f9722a3daafe3b4186f6b6457e060405160405180910390a35050565b8173ffffffffffffffffffffffffffffffffffffffff168373ffffffffffffffffffffffffffffffffffffffff1603611b11576040517f08c379a0000000000000000000000000000000000000000000000000000000008152600401611b089061351a565b60405180910390fd5b80600560008573ffffffffffffffffffffffffffffffffffffffff1673ffffffffffffffffffffffffffffffffffffffff16815260200190815260200160002060008473ffffffffffffffffffffffffffffffffffffffff1673ffffffffffffffffffffffffffffffffffffffff16815260200190815260200160002060006101000a81548160ff0219169083151502179055508173ffffffffffffffffffffffffffffffffffffffff168373ffffffffffffffffffffffffffffffffffffffff167f17307eab39ab6107e8899845ad3d59bd9653f200f220920489ca2b5937696c3183604051611c02919061270f565b60405180910390a3505050565b611c1a8484846114e4565b611c2684848484612029565b611c65576040517f08c379a0000000000000000000000000000000000000000000000000000000008152600401611c5c906135ac565b60405180910390fd5b50505050565b606060405180602001604052806000815250905090565b606060006001611c91846121b0565b01905060008167ffffffffffffffff811115611cb057611caf612aa0565b5b6040519080825280601f01601f191660200182016040528015611ce25781602001600182028036833780820191505090505b509050600082602001820190505b600115611d45578080600190039150507f3031323334353637383961626364656600000000000000000000000000000000600a86061a8153600a8581611d3957611d386135cc565b5b04945060008503611cf0575b819350505050919050565b6000611d5b82611308565b9050611d6b816000846001611efd565b611d7482611308565b90506004600083815260200190815260200160002060006101000a81549073ffffffffffffffffffffffffffffffffffffffff02191690556001600360008373ffffffffffffffffffffffffffffffffffffffff1673ffffffffffffffffffffffffffffffffffffffff168152602001908152602001600020600082825403925050819055506002600083815260200190815260200160002060006101000a81549073ffffffffffffffffffffffffffffffffffffffff021916905581600073ffffffffffffffffffffffffffffffffffffffff168273ffffffffffffffffffffffffffffffffffffffff167fddf252ad1be2c89b69c2b068fc378daa952ba7f163c4a11628f55a4df523b3ef60405160405180910390a4611e9a816000846001612023565b5050565b611eb8828260405180602001604052806000815250612303565b5050565b60008073ffffffffffffffffffffffffffffffffffffffff16611ede836117dd565b73ffffffffffffffffffffffffffffffffffffffff1614159050919050565b600181111561201d57600073ffffffffffffffffffffffffffffffffffffffff168473ffffffffffffffffffffffffffffffffffffffff1614611f915780600360008673ffffffffffffffffffffffffffffffffffffffff1673ffffffffffffffffffffffffffffffffffffffff1681526020019081526020016000206000828254611f8991906135fb565b925050819055505b600073ffffffffffffffffffffffffffffffffffffffff168373ffffffffffffffffffffffffffffffffffffffff161461201c5780600360008573ffffffffffffffffffffffffffffffffffffffff1673ffffffffffffffffffffffffffffffffffffffff168152602001908152602001600020600082825461201491906130a3565b925050819055505b5b50505050565b50505050565b600061204a8473ffffffffffffffffffffffffffffffffffffffff1661235e565b156121a3578373ffffffffffffffffffffffffffffffffffffffff1663150b7a0261207361138e565b8786866040518563ffffffff1660e01b81526004016120959493929190613684565b6020604051808303816000875af19250505080156120d157506040513d601f19601f820116820180604052508101906120ce91906136e5565b60015b612153573d8060008114612101576040519150601f19603f3d011682016040523d82523d6000602084013e612106565b606091505b50600081510361214b576040517f08c379a0000000000000000000000000000000000000000000000000000000008152600401612142906135ac565b60405180910390fd5b805181602001fd5b63150b7a0260e01b7bffffffffffffffffffffffffffffffffffffffffffffffffffffffff1916817bffffffffffffffffffffffffffffffffffffffffffffffffffffffff1916149150506121a8565b600190505b949350505050565b600080600090507a184f03e93ff9f4daa797ed6e38ed64bf6a1f010000000000000000831061220e577a184f03e93ff9f4daa797ed6e38ed64bf6a1f0100000000000000008381612204576122036135cc565b5b0492506040810190505b6d04ee2d6d415b85acef8100000000831061224b576d04ee2d6d415b85acef81000000008381612241576122406135cc565b5b0492506020810190505b662386f26fc10000831061227a57662386f26fc1000083816122705761226f6135cc565b5b0492506010810190505b6305f5e10083106122a3576305f5e1008381612299576122986135cc565b5b0492506008810190505b61271083106122c85761271083816122be576122bd6135cc565b5b0492506004810190505b606483106122eb57606483816122e1576122e06135cc565b5b0492506002810190505b600a83106122fa576001810190505b80915050919050565b61230d8383612381565b61231a6000848484612029565b612359576040517f08c379a0000000000000000000000000000000000000000000000000000000008152600401612350906135ac565b60405180910390fd5b505050565b6000808273ffffffffffffffffffffffffffffffffffffffff163b119050919050565b600073ffffffffffffffffffffffffffffffffffffffff168273ffffffffffffffffffffffffffffffffffffffff16036123f0576040517f08c379a00000000000000000000000000000000000000000000000000000000081526004016123e79061375e565b60405180910390fd5b6123f981611ebc565b15612439576040517f08c379a0000000000000000000000000000000000000000000000000000000008152600401612430906137ca565b60405180910390fd5b612447600083836001611efd565b61245081611ebc565b15612490576040517f08c379a0000000000000000000000000000000000000000000000000000000008152600401612487906137ca565b60405180910390fd5b6001600360008473ffffffffffffffffffffffffffffffffffffffff1673ffffffffffffffffffffffffffffffffffffffff16815260200190815260200160002060008282540192505081905550816002600083815260200190815260200160002060006101000a81548173ffffffffffffffffffffffffffffffffffffffff021916908373ffffffffffffffffffffffffffffffffffffffff160217905550808273ffffffffffffffffffffffffffffffffffffffff16600073ffffffffffffffffffffffffffffffffffffffff167fddf252ad1be2c89b69c2b068fc378daa952ba7f163c4a11628f55a4df523b3ef60405160405180910390a461259a600083836001612023565b5050565b82805482825590600052602060002090810192821561262d579160200282015b8281111561262c57823573ffffffffffffffffffffffffffffffffffffffff168260006101000a81548173ffffffffffffffffffffffffffffffffffffffff021916908373ffffffffffffffffffffffffffffffffffffffff160217905550916020019190600101906125be565b5b50905061263a919061263e565b5090565b5b8082111561265757600081600090555060010161263f565b5090565b6000604051905090565b600080fd5b600080fd5b60007fffffffff0000000000000000000000000000000000000000000000000000000082169050919050565b6126a48161266f565b81146126af57600080fd5b50565b6000813590506126c18161269b565b92915050565b6000602082840312156126dd576126dc612665565b5b60006126eb848285016126b2565b91505092915050565b60008115159050919050565b612709816126f4565b82525050565b60006020820190506127246000830184612700565b92915050565b600081519050919050565b600082825260208201905092915050565b60005b83811015612764578082015181840152602081019050612749565b60008484015250505050565b6000601f19601f8301169050919050565b600061278c8261272a565b6127968185612735565b93506127a6818560208601612746565b6127af81612770565b840191505092915050565b600060208201905081810360008301526127d48184612781565b905092915050565b6000819050919050565b6127ef816127dc565b81146127fa57600080fd5b50565b60008135905061280c816127e6565b92915050565b60006020828403121561282857612827612665565b5b6000612836848285016127fd565b91505092915050565b600073ffffffffffffffffffffffffffffffffffffffff82169050919050565b600061286a8261283f565b9050919050565b61287a8161285f565b82525050565b60006020820190506128956000830184612871565b92915050565b6128a48161285f565b81146128af57600080fd5b50565b6000813590506128c18161289b565b92915050565b600080604083850312156128de576128dd612665565b5b60006128ec858286016128b2565b92505060206128fd858286016127fd565b9150509250929050565b6000806000606084860312156129205761291f612665565b5b600061292e868287016128b2565b935050602061293f868287016128b2565b9250506040612950868287016127fd565b9150509250925092565b600060ff82169050919050565b6129708161295a565b811461297b57600080fd5b50565b60008135905061298d81612967565b92915050565b600080604083850312156129aa576129a9612665565b5b60006129b8858286016127fd565b92505060206129c98582860161297e565b9150509250929050565b6000602082840312156129e9576129e8612665565b5b60006129f7848285016128b2565b91505092915050565b612a09816127dc565b82525050565b6000602082019050612a246000830184612a00565b92915050565b612a33816126f4565b8114612a3e57600080fd5b50565b600081359050612a5081612a2a565b92915050565b60008060408385031215612a6d57612a6c612665565b5b6000612a7b858286016128b2565b9250506020612a8c85828601612a41565b9150509250929050565b600080fd5b600080fd5b7f4e487b7100000000000000000000000000000000000000000000000000000000600052604160045260246000fd5b612ad882612770565b810181811067ffffffffffffffff82111715612af757612af6612aa0565b5b80604052505050565b6000612b0a61265b565b9050612b168282612acf565b919050565b600067ffffffffffffffff821115612b3657612b35612aa0565b5b612b3f82612770565b9050602081019050919050565b82818337600083830152505050565b6000612b6e612b6984612b1b565b612b00565b905082815260208101848484011115612b8a57612b89612a9b565b5b612b95848285612b4c565b509392505050565b600082601f830112612bb257612bb1612a96565b5b8135612bc2848260208601612b5b565b91505092915050565b60008060008060808587031215612be557612be4612665565b5b6000612bf3878288016128b2565b9450506020612c04878288016128b2565b9350506040612c15878288016127fd565b925050606085013567ffffffffffffffff811115612c3657612c3561266a565b5b612c4287828801612b9d565b91505092959194509250565b600063ffffffff82169050919050565b612c6781612c4e565b82525050565b6000608082019050612c826000830187612871565b612c8f6020830186612a00565b612c9c6040830185612c5e565b612ca96060830184612700565b95945050505050565b60008060408385031215612cc957612cc8612665565b5b6000612cd7858286016127fd565b9250506020612ce885828601612a41565b9150509250929050565b60008060408385031215612d0957612d08612665565b5b6000612d17858286016128b2565b9250506020612d28858286016128b2565b9150509250929050565b600080fd5b600080fd5b60008083601f840112612d5257612d51612a96565b5b8235905067ffffffffffffffff811115612d6f57612d6e612d32565b5b602083019150836020820283011115612d8b57612d8a612d37565b5b9250929050565b600080600060408486031215612dab57612daa612665565b5b600084013567ffffffffffffffff811115612dc957612dc861266a565b5b612dd586828701612d3c565b93509350506020612de88682870161297e565b9150509250925092565b7f4e487b7100000000000000000000000000000000000000000000000000000000600052602260045260246000fd5b60006002820490506001821680612e3957607f821691505b602082108103612e4c57612e4b612df2565b5b50919050565b7f4552433732313a20617070726f76616c20746f2063757272656e74206f776e6560008201527f7200000000000000000000000000000000000000000000000000000000000000602082015250565b6000612eae602183612735565b9150612eb982612e52565b604082019050919050565b60006020820190508181036000830152612edd81612ea1565b9050919050565b7f4552433732313a20617070726f76652063616c6c6572206973206e6f7420746f60008201527f6b656e206f776e6572206f7220617070726f76656420666f7220616c6c000000602082015250565b6000612f40603d83612735565b9150612f4b82612ee4565b604082019050919050565b60006020820190508181036000830152612f6f81612f33565b9050919050565b7f4552433732313a2063616c6c6572206973206e6f7420746f6b656e206f776e6560008201527f72206f7220617070726f76656400000000000000000000000000000000000000602082015250565b6000612fd2602d83612735565b9150612fdd82612f76565b604082019050919050565b6000602082019050818103600083015261300181612fc5565b9050919050565b7f4552433732313a20696e76616c696420746f6b656e2049440000000000000000600082015250565b600061303e601883612735565b915061304982613008565b602082019050919050565b6000602082019050818103600083015261306d81613031565b9050919050565b7f4e487b7100000000000000000000000000000000000000000000000000000000600052601160045260246000fd5b60006130ae826127dc565b91506130b9836127dc565b92508282019050808211156130d1576130d0613074565b5b92915050565b7f4552433732313a2061646472657373207a65726f206973206e6f74206120766160008201527f6c6964206f776e65720000000000000000000000000000000000000000000000602082015250565b6000613133602983612735565b915061313e826130d7565b604082019050919050565b6000602082019050818103600083015261316281613126565b9050919050565b600081905092915050565b600061317f8261272a565b6131898185613169565b9350613199818560208601612746565b80840191505092915050565b60006131b18285613174565b91506131bd8284613174565b91508190509392505050565b7f4e6f20636f2d7369676e65727320666f756e6400000000000000000000000000600082015250565b60006131ff601383612735565b915061320a826131c9565b602082019050919050565b6000602082019050818103600083015261322e816131f2565b9050919050565b7f4e487b7100000000000000000000000000000000000000000000000000000000600052603260045260246000fd5b600061326f826127dc565b91507fffffffffffffffffffffffffffffffffffffffffffffffffffffffffffffffff82036132a1576132a0613074565b5b600182019050919050565b7f4f776e61626c653a206e6577206f776e657220697320746865207a65726f206160008201527f6464726573730000000000000000000000000000000000000000000000000000602082015250565b6000613308602683612735565b9150613313826132ac565b604082019050919050565b60006020820190508181036000830152613337816132fb565b9050919050565b7f4552433732313a207472616e736665722066726f6d20696e636f72726563742060008201527f6f776e6572000000000000000000000000000000000000000000000000000000602082015250565b600061339a602583612735565b91506133a58261333e565b604082019050919050565b600060208201905081810360008301526133c98161338d565b9050919050565b7f4552433732313a207472616e7366657220746f20746865207a65726f2061646460008201527f7265737300000000000000000000000000000000000000000000000000000000602082015250565b600061342c602483612735565b9150613437826133d0565b604082019050919050565b6000602082019050818103600083015261345b8161341f565b9050919050565b7f4f776e61626c653a2063616c6c6572206973206e6f7420746865206f776e6572600082015250565b6000613498602083612735565b91506134a382613462565b602082019050919050565b600060208201905081810360008301526134c78161348b565b9050919050565b7f4552433732313a20617070726f766520746f2063616c6c657200000000000000600082015250565b6000613504601983612735565b915061350f826134ce565b602082019050919050565b60006020820190508181036000830152613533816134f7565b9050919050565b7f4552433732313a207472616e7366657220746f206e6f6e20455243373231526560008201527f63656976657220696d706c656d656e7465720000000000000000000000000000602082015250565b6000613596603283612735565b91506135a18261353a565b604082019050919050565b600060208201905081810360008301526135c581613589565b9050919050565b7f4e487b7100000000000000000000000000000000000000000000000000000000600052601260045260246000fd5b6000613606826127dc565b9150613611836127dc565b925082820390508181111561362957613628613074565b5b92915050565b600081519050919050565b600082825260208201905092915050565b60006136568261362f565b613660818561363a565b9350613670818560208601612746565b61367981612770565b840191505092915050565b60006080820190506136996000830187612871565b6136a66020830186612871565b6136b36040830185612a00565b81810360608301526136c5818461364b565b905095945050505050565b6000815190506136df8161269b565b92915050565b6000602082840312156136fb576136fa612665565b5b6000613709848285016136d0565b91505092915050565b7f4552433732313a206d696e7420746f20746865207a65726f2061646472657373600082015250565b6000613748602083612735565b915061375382613712565b602082019050919050565b600060208201905081810360008301526137778161373b565b9050919050565b7f4552433732313a20746f6b656e20616c7265616479206d696e74656400000000600082015250565b60006137b4601c83612735565b91506137bf8261377e565b602082019050919050565b600060208201905081810360008301526137e3816137a7565b905091905056fea26469706673582212206c1bea8ed4edb00f334be2d968f6f3d6b3487411e9fb710cff9d269761a9afd964736f6c63430008120033",
  "immutableReferences": {},
  "source": "//SPDX-License-Identifier: MIT\n\npragma solidity ^0.8.0;\n\nimport \"@openzeppelin/contracts/token/ERC721/ERC721.sol\";\nimport \"@openzeppelin/contracts/access/Ownable.sol\";\n\n/**\n * Variable syntax: all contract state memory contains a leading underscore in its name\n * All function/struct parameters contain no leading underscores\n */\n\ncontract MultisigNFT is ERC721, Ownable {\n    using Address for address;\n    using Strings for uint256;\n\n    string private _name;\n    string private _symbol;\n    uint256 private _tokenId;\n\n    // Mapping from tokenId to coSigners - each token has a non-zero array of cosigners that own it\n    mapping(uint256 => address[]) private _coSigners;\n    mapping(address => bool) private _isCoSigner;\n\n    // Mapping from token ID to owner address and bool to track literal ownership of each token\n    mapping(uint256 => address) private _owners;\n    mapping(address => bool) private _isOwner;\n\n    // Mapping owner address to token count\n    mapping(address => uint256) private _balances;\n\n    // Mapping from token ID to approved address\n    mapping(uint256 => address) private _tokenApprovals;\n\n    // Mapping from owner to operator approvals\n    mapping(address => mapping(address => bool)) private _operatorApprovals;\n\n    uint256 private _proposalId;\n\n    // struct to hold Proposal objects\n    struct Proposal {\n        address proposer;\n        uint256 tokenId;\n        uint32 action;\n        bool approved;\n    }\n    mapping(uint256 => Proposal) private _proposals;\n    uint256 private _proposalCount;\n\n    // mapping from proposal ID to mapping of coSigners to their vote bool\n    mapping(uint256 => mapping(address => bool)) private _votes;\n\n    // Mapping of tokenId to required signatures for passing proposals\n    mapping(uint256 => uint8) private _requiredSignatures;\n\n    // constructor - runs once on contract deployment\n    constructor() ERC721(\"MultisigNFT\", \"MSNFT\"){\n        _tokenId = 1;\n        _proposalId = 1;\n        _proposalCount = 0;\n    }\n\n    function mint(address[] calldata coSigners, uint8 requiredSignatures) public {\n        super._safeMint(msg.sender, _tokenId);\n        _coSigners[_tokenId] = coSigners;\n\n        for (uint i = 0; i < coSigners.length; i++) {\n            _isCoSigner[coSigners[i]] = true;\n        }\n\n        _requiredSignatures[_tokenId] = requiredSignatures;\n\n        _owners[_tokenId] = msg.sender;\n        _isOwner[msg.sender] = true;\n        \n        _tokenId += 1;\n    }\n\n    function isCoSigner(uint256 tokenId, address addy) private view returns (bool) {\n        for (uint i = 0; i < _coSigners[tokenId].length; i++) {\n            if (_coSigners[tokenId][i] == addy) {\n                return true;\n            }\n        }\n    }\n\n    function isOwner(uint tokenId, address addy) private view returns (bool) {\n        if (_owners[tokenId] == addy) {\n            return true;\n        }\n    }\n\n    function propose(uint256 tokenId, uint8 action) public {\n        require(isCoSigner(tokenId, msg.sender) == true || isOwner(tokenId, msg.sender) == true);\n        Proposal memory proposal = Proposal(msg.sender, tokenId, action, false);\n        _proposals[tokenId] = proposal;\n        _proposalId += 1;\n        _proposalCount += 1;\n    }\n\n    function vote(uint256 proposalId, bool approval) public {\n        Proposal storage proposal = _proposals[proposalId];\n        uint256 tokenId = proposal.tokenId;\n        require(isCoSigner(tokenId, msg.sender) == true || isOwner(tokenId, msg.sender) == true);\n        require(_coSigners[tokenId].length > 0, \"No co-signers found\");\n        _votes[proposalId][msg.sender] = approval;\n\n        uint approvalCount = 0;\n\n        for (uint i = 0; i < _coSigners[tokenId].length; i++) {\n            if (_votes[proposalId][_coSigners[tokenId][i]] == true) {\n                approvalCount += 1;\n            } else if (_votes[proposalId][_owners[tokenId]] == true) {\n                approvalCount += 1;\n            }\n        }\n\n        if (approvalCount >= _requiredSignatures[tokenId]) {\n            proposal.approved = true;\n            \n            if (proposal.action == 1) {\n                super._burn(tokenId);\n            }\n        }\n\n    }\n\n    function getProposal(uint256 proposalId) public view returns (address, uint256, uint32, bool) {\n        Proposal storage proposal = _proposals[proposalId];\n        return (proposal.proposer, proposal.tokenId, proposal.action, proposal.approved);\n    }\n\n    function getProposalCount() public view returns (uint256) {\n        return _proposalCount;\n    }\n\n    /**\n     * @dev See {IERC721-balanceOf}.\n     */\n    function balanceOf(address owner) public view virtual override returns (uint256) {\n        require(owner != address(0), \"ERC721: address zero is not a valid owner\");\n        return _balances[owner];\n    }\n\n    /**\n     * @dev See {IERC721-ownerOf}.\n     */\n    function ownerOf(uint256 tokenId) public view virtual override returns (address) {\n        address owner = _ownerOf(tokenId);\n        require(owner != address(0), \"ERC721: invalid token ID\");\n        return owner;\n    }\n\n    /**\n     * @dev See {IERC721Metadata-name}.\n     */\n    function name() public view virtual override returns (string memory) {\n        return _name;\n    }\n\n    /**\n     * @dev See {IERC721Metadata-symbol}.\n     */\n    function symbol() public view virtual override returns (string memory) {\n        return _symbol;\n    }\n\n    /**\n     * @dev See {IERC721Metadata-tokenURI}.\n     */\n    function tokenURI(uint256 tokenId) public view virtual override returns (string memory) {\n        _requireMinted(tokenId);\n\n        string memory baseURI = _baseURI();\n        return bytes(baseURI).length > 0 ? string(abi.encodePacked(baseURI, tokenId.toString())) : \"\";\n    }\n\n    /**\n     * @dev See {IERC721-approve}.\n     */\n    function approve(address to, uint256 tokenId) public virtual override {\n        address owner = ERC721.ownerOf(tokenId);\n        require(to != owner, \"ERC721: approval to current owner\");\n\n        require(\n            _msgSender() == owner || isApprovedForAll(owner, _msgSender()),\n            \"ERC721: approve caller is not token owner or approved for all\"\n        );\n\n        _approve(to, tokenId);\n    }\n\n    /**\n     * @dev See {IERC721-getApproved}.\n     */\n    function getApproved(uint256 tokenId) public view virtual override returns (address) {\n        _requireMinted(tokenId);\n\n        return _tokenApprovals[tokenId];\n    }\n\n    /**\n     * @dev See {IERC721-setApprovalForAll}.\n     */\n    function setApprovalForAll(address operator, bool approved) public virtual override {\n        _setApprovalForAll(_msgSender(), operator, approved);\n    }\n\n    /**\n     * @dev See {IERC721-isApprovedForAll}.\n     */\n    function isApprovedForAll(address owner, address operator) public view virtual override returns (bool) {\n        return _operatorApprovals[owner][operator];\n    }\n\n    /**\n     * @dev See {IERC721-transferFrom}.\n     */\n    function transferFrom(\n        address from,\n        address to,\n        uint256 tokenId\n    ) public virtual override {\n        //solhint-disable-next-line max-line-length\n        require(_isApprovedOrOwner(_msgSender(), tokenId), \"ERC721: caller is not token owner or approved\");\n\n        _transfer(from, to, tokenId);\n    }\n\n    /**\n     * @dev See {IERC721-safeTransferFrom}.\n     */\n    function safeTransferFrom(\n        address from,\n        address to,\n        uint256 tokenId\n    ) public virtual override {\n        safeTransferFrom(from, to, tokenId, \"\");\n    }\n\n    /**\n     * @dev See {IERC721-safeTransferFrom}.\n     */\n    function safeTransferFrom(\n        address from,\n        address to,\n        uint256 tokenId,\n        bytes memory data\n    ) public virtual override {\n        require(_isApprovedOrOwner(_msgSender(), tokenId), \"ERC721: caller is not token owner or approved\");\n        _safeTransfer(from, to, tokenId, data);\n    }\n\n}",
  "sourcePath": "/home/alexs/Documents/MantleHackathon/MultisigNFT/contracts/MultisigNFT.sol",
  "compiler": {
    "name": "solc",
    "version": "0.8.18+commit.87f61d96.Emscripten.clang"
  },
  "schemaVersion": "3.4.11",
  "updatedAt": "2023-02-20T22:57:56.128Z",
  "networkType": "ethereum",
  "devdoc": {
    "events": {
      "Approval(address,address,uint256)": {
        "details": "Emitted when `owner` enables `approved` to manage the `tokenId` token."
      },
      "ApprovalForAll(address,address,bool)": {
        "details": "Emitted when `owner` enables or disables (`approved`) `operator` to manage all of its assets."
      },
      "Transfer(address,address,uint256)": {
        "details": "Emitted when `tokenId` token is transferred from `from` to `to`."
      }
    },
    "kind": "dev",
    "methods": {
      "approve(address,uint256)": {
        "details": "See {IERC721-approve}."
      },
      "balanceOf(address)": {
        "details": "See {IERC721-balanceOf}."
      },
      "getApproved(uint256)": {
        "details": "See {IERC721-getApproved}."
      },
      "isApprovedForAll(address,address)": {
        "details": "See {IERC721-isApprovedForAll}."
      },
      "name()": {
        "details": "See {IERC721Metadata-name}."
      },
      "owner()": {
        "details": "Returns the address of the current owner."
      },
      "ownerOf(uint256)": {
        "details": "See {IERC721-ownerOf}."
      },
      "renounceOwnership()": {
        "details": "Leaves the contract without owner. It will not be possible to call `onlyOwner` functions anymore. Can only be called by the current owner. NOTE: Renouncing ownership will leave the contract without an owner, thereby removing any functionality that is only available to the owner."
      },
      "safeTransferFrom(address,address,uint256)": {
        "details": "See {IERC721-safeTransferFrom}."
      },
      "safeTransferFrom(address,address,uint256,bytes)": {
        "details": "See {IERC721-safeTransferFrom}."
      },
      "setApprovalForAll(address,bool)": {
        "details": "See {IERC721-setApprovalForAll}."
      },
      "supportsInterface(bytes4)": {
        "details": "See {IERC165-supportsInterface}."
      },
      "symbol()": {
        "details": "See {IERC721Metadata-symbol}."
      },
      "tokenURI(uint256)": {
        "details": "See {IERC721Metadata-tokenURI}."
      },
      "transferFrom(address,address,uint256)": {
        "details": "See {IERC721-transferFrom}."
      },
      "transferOwnership(address)": {
        "details": "Transfers ownership of the contract to a new account (`newOwner`). Can only be called by the current owner."
      }
    },
    "version": 1
  },
  "userdoc": {
    "kind": "user",
    "methods": {},
    "notice": "Variable syntax: all contract state memory contains a leading underscore in its name All function/struct parameters contain no leading underscores",
    "version": 1
  }
}